:020000040800F2
:100000000080012025100008150E00081D0E0008B4
:10001000250E00082D0E0008350E00080000000017
:100020000000000000000000000000003D0E00087D
:100030004B0E000800000000590E0008670E000873
:10004000751000087510000875100008751000087C
:10005000751000087510000875100008751000086C
:10006000751000087510000875100008751000085C
:10007000751000087510000875100008751000084C
:1000800075100008751000087510000800000000C9
:1000900000000000000000000000000075100008D3
:1000A000751000087510000875100008751000081C
:1000B000751000087510000875100008751000080C
:1000C00075100008751000087510000875100008FC
:1000D0007510000875100008751000080000000079
:1000E0007510000875100008751000080000000069
:1000F0000000000000000000000000007510000873
:100100000000000075100008751000087510000848
:1001100000000000000000000000000000000000DF
:10012000751000087510000875100008751000089B
:100130007510000800000000000000000000000032
:100140000000000000000000000000007510000822
:10015000751000087510000875100008751000086B
:100160007510000875100008000000000000000075
:10017000000000000000000000000000000000007F
:1001800000000000751000080000000000000000E2
:0401900075100008DE
:1001A00010B5054C237833B9044B13B10448AFF3B1
:1001B00000800123237010BD6800002000000000B3
:1001C000A032000808B5034B1BB103490348AFF345
:1001D000008008BD000000006C000020A032000874
:1001E00001F0FF01102A2BDB10F0070F08D010F8E8
:1001F000013B013A8B422DD010F0070F42B3F6D1EC
:10020000F0B441EA012141EA014122F007047FF004
:1002100000070023F0E80256083C85EA010586EA5B
:10022000010685FA47F5A3FA87F586FA47F6A5FA97
:1002300087F68EB9EED1F0BC01F0FF0102F00702A3
:1002400032B110F8013B013A83EA010313B1F8D14E
:100250000020704701387047002D06BF354603382F
:10026000073815F0010F07D1013015F4807F02BF68
:10027000013015F4C03F0130F0BC0138704700BFB9
:1002800053B94AB9002908BF00281CBF4FF0FF31FD
:100290004FF0FF3000F088B9ADF1080C6DE904CEE5
:1002A00000F006F8DDF804E0DDE9022304B0704751
:1002B0002DE9F047089D8E4604468846002B4AD11A
:1002C0008A42174662D9B2FA82F64EB1C6F12003CD
:1002D00001FA06F820FA03F3B74043EA0808B440ED
:1002E0004FEA174E1FFA87FCB8FBFEF1230C0EFBFA
:1002F000118843EA084301FB0CF29A4209D9FB1822
:1003000001F1FF3080F0EA809A4240F2E780023942
:100310003B449A1AA3B2B2FBFEF00EFB102243EA52
:10032000024300FB0CFC9C4509D9FB1800F1FF328D
:1003300080F0D6809C4540F2D3803B44023840EAAE
:100340000140A3EB0C0300211DB1F3400022C5E9DD
:100350000032BDE8F0878B4205D90DB1C5E9000137
:1003600000210846F5E7B3FA83F1002946D1734529
:1003700002D3824200F20581841A6EEB030201204F
:100380009046002DE5D0C5E90048E2E7002A00F0DC
:100390009080B2FA82F6002E40F0A4808A1A030CF4
:1003A0004FEA174E80B2BCB20121B2FBFEFC0EFB3D
:1003B0001C2243EA024304FB0CF29A4207D9FB18C1
:1003C0000CF1FF3802D29A4200F2E080C4469B1A38
:1003D000B3FBFEF20EFB123340EA034302FB04F4CC
:1003E0009C4207D9FB1802F1FF3002D29C4200F276
:1003F000CA8002461B1B42EA0C40A5E7C1F1200659
:100400008B4022FA06F71F430EFA01F420FA06F396
:100410002EFA06FE4FEA1749234300FA01F81FFAA5
:1004200087FCBEFBF9F01C0C09FB10EE44EA0E44FD
:1004300000FB0CFEA64502FA01F209D93C1900F1B5
:10044000FF3A80F09C80A64540F2998002383C44F7
:10045000A4EB0E041FFA83FEB4FBF9F309FB13446B
:100460004EEA044403FB0CFCA44508D93C1903F1F3
:10047000FF3E80F08280A4457FD9023B3C4443EAA2
:100480000040A4EB0C04A0FB02EC64457346E1467B
:1004900062D35FD05DB1B8EB030264EB090404FAE8
:1004A00006F622FA01F31E43CC40C5E900640021A0
:1004B0004FE7B1FBF2FC010C41EA0E4180B240EA89
:1004C00001423B4638463C46B846BE462026B1FB74
:1004D000F7F1A2EB080241EA0C4166E7014618E792
:1004E00010462CE7C6F120022EFA02F3B740B140C5
:1004F00020FA02F24FEA174E0A43B3FBFEF8BCB2F1
:100500000EFB1833110C41EA034108FB04F9B0401B
:1005100089454FEA104380B23ED9791808F1FF3C73
:1005200001D289451FD8A1EB0901B1FBFEF909FBF6
:1005300004F80EFB191192B242EA0142424529D257
:10054000BA1809F1FF31C4D24245C2D2A9F1020161
:100550003A44BEE7F0459DD2BEEB02036CEB070CBC
:100560000138E14696E7A7EB09094944A8F1020CD6
:10057000B1FBFEF909FB04F8DBE773467FE7504661
:1005800066E70846FDE63B44023A33E7ACF1020C6D
:100590003B441CE749469CE7A1EB0901C446B1FB7B
:1005A000FEF909FB04F8C4E7704700BF90B58BB0B3
:1005B00000AF00F061FD00F0ADFA00F039FA00F094
:1005C0002FFB0021BB4800F063FB01224021BA4809
:1005D00001F046F8B94B43F6FF725A614FF47A7056
:1005E00000F0D6FB0021002000F0ECF90021B44817
:1005F00000F04EFB0121B34800F04AFB0121B24854
:1006000001F016F80346002B40F09E81AF4B1B789B
:10061000012B00F2928100F095FD0346184601F08F
:100620005DFC01224FF48071A74801F019F826E023
:1006300001F082FC0246A64B83FB0231D317C91A94
:100640000B465B000B445B00D11ACBB20133DCB22A
:1006500001F072FC02469E4B83FB0231D317C91A8C
:100660000B465B000B445B00D11ACBB20133DBB20B
:100670001946204600F0A6F93C2000F089FB012134
:10068000914800F0D5FF0346002BD1D000224FF453
:1006900080718D4800F0E4FF01F04EFC02468C4B67
:1006A00083FB0231D317C91A0B465B000B445B0076
:1006B000D11ACBB2013387F8253001F03DFC024658
:1006C000834B83FB0231D317C91A0B465B000B44E3
:1006D0005B00D11ACBB2013387F8243097F824207D
:1006E00097F825301146184600F06CF9002387F87A
:1006F000273097F8252097F824309A420DD197F8A3
:100700002530012B03D097F82530062B02D14FF06E
:10071000FF3300E0012387F827306C4B1B78002B58
:1007200031D197F8252097F824301344DAB2694B79
:100730001A70694A97F827301370664B1B781A466F
:10074000654B93F90030012B09D0634B93F90030CE
:10075000B3F1FF3F01D1614B02E0614B00E0614B1F
:1007600007F11400604901F0E7FC07F114030021D0
:10077000184600F08DFA01215C4800F089FA534BCD
:1007800001221A70D9E097F8252097F824301344F5
:10079000DAB2574B1A70574A97F827301370544BF8
:1007A0001B781A46534B93F90030012B09D0514B5B
:1007B00093F90030B3F1FF3F01D1484B02E0484BC1
:1007C00000E0484B381D4C4901F0B6FC3B1D0121AF
:1007D000184600F05DFA4FF47A7000F0D9FA002361
:1007E00087F826303C4B93F90030B3F1FF3F09D135
:1007F000404B93F90030B3F1FF3F03D1002387F85A
:1008000026304AE0344B93F90030B3F1FF3F03D177
:10081000022387F8263040E0364B93F90030B3F1DD
:10082000FF3F03D1012387F8263036E02A4B93F9A6
:100830000030012B08D12F4B93F90030012B03D14D
:10084000002387F8263028E0234B93F90030012B52
:1008500003D1012387F826301FE0264B93F900309F
:10086000012B03D1022387F8263016E0194B1A78A2
:100870001F4B1B789A4203D9012387F826300CE0DE
:100880001B4B1A78134B1B789A4203D9022387F823
:10089000263002E0002387F8263097F92630002B17
:1008A00030D097F92630012B01D1144B2BE0144B9B
:1008B00029E000BFB83200080004024000080240EE
:1008C000C8320008D832000800000240840000202E
:1008D000ABAAAA2A8500002087000020E832000881
:1008E000EC320008F0320008F4320008003300084F
:1008F0008600002088000020103300081C33000808
:100900002C330008294B0021184600F0C1F997F953
:100910002630002B0CBF01230023DBB25BB218464C
:1009200000F0FAF90121224800F0B2F9214B02222D
:100930001A7002E00A2000F02BFA01211E4800F094
:1009400077FE0346002BF5D002211B4800F070FE15
:100950000346002B7FF452AE164B00221A70002182
:10096000002000F02FF80021144800F091F9012137
:10097000134800F08DF901224FF480710E4800F009
:100980006FFE642000F004FA00224FF480710A48E0
:1009900000F066FE02E00A2000F0FAF902210648A3
:1009A00000F046FE0346002BF5D027E63C33000856
:1009B000483300088400002000000240583300083B
:1009C000D832000880B584B000AF03460A46FB71F8
:1009D0001346BB71FB79134A32F8133003F07F02E0
:1009E000BB79104931F81330DB0103F47E53134314
:1009F000FB600D4AFB685361FB79002B02D1BB7988
:100A0000002B05D001224021084800F029FE05E016
:100A100000224021054800F023FE00BF00BF103730
:100A2000BD4680BD68330008000802400004024053
:100A300080B588B000AF07F10C0300221A605A603D
:100A40009A60DA601A610023BB602E4B1B6B2D4A43
:100A500043F0040313632B4B1B6B03F00403BB60D5
:100A6000BB6800237B60274B1B6B264A43F00103C6
:100A70001363244B1B6B03F001037B607B68002333
:100A80003B60204B1B6B1F4A43F0020313631D4B5B
:100A90001B6B03F002033B603B6843F6FF73FB6094
:100AA00001233B6100237B610323BB6107F10C033E
:100AB0001946154800F038FC7F23FB6001233B6199
:100AC00007F10C031946114800F02EFC0323FB60CC
:100AD00000233B6101237B6107F10C0319460C489D
:100AE00000F022FC4FF48073FB6001233B6107F1AF
:100AF0000C031946064800F017FC00BF2037BD461E
:100B000080BD00BF003802400008024000040240DF
:100B10000000024080B594B000AF07F120033022FE
:100B20000021184601F06DFB07F10C0300221A604A
:100B30005A609A60DA601A610023BB601E4B1B6C1E
:100B40001D4A43F0805313641B4B1B6C03F080530E
:100B5000BB60BB6800237B60184B1B6823F44043D9
:100B6000164A43F400431360144B1B6803F44043DC
:100B70007B607B6802233B620123FB6210233B63A3
:100B80000023BB6307F12003184600F083FD0F2309
:100B9000FB6000233B6100237B610023BB610023DA
:100BA000FB6107F10C030021184600F0EBFF00BFCA
:100BB0005037BD4680BD00BF003802400070004085
:100BC00080B582B000AF03460A46FB711346BB7185
:100BD000BB791A460121114800F042FD0F4B5B69B9
:100BE00023F03C02FB799B0003F03C030B491343C9
:100BF0004B6101220221094800F032FD012000F082
:100C0000C7F800220221054800F02AFD012000F06B
:100C1000BFF800BF0837BD4680BD00BF00040240DA
:100C200080B500AF322000F0B3F800210320FFF7B9
:100C3000C7FF052000F0ACF800210320FFF7C0FF3C
:100C4000012000F0A5F800210320FFF7B9FF0021E3
:100C50000220FFF7B5FF00210220FFF7B1FF0021BE
:100C60000820FFF7ADFF00210020FFF7A9FF0021BA
:100C70000C20FFF7A5FF00210020FFF7A1FF0021B6
:100C80000120FFF79DFF022000F082F800BF80BD29
:100C900080B582B000AF78600B46FB70FB78002B0C
:100CA00001D1082300E00C2300211846FFF788FF3C
:100CB00000210020FFF784FFFB78002B01D10823DF
:100CC00000E00C2300211846FFF77AFFFB78002B89
:100CD00001D1802300E0C02300211846FFF770FFF8
:100CE00010E07B681B781B09DBB201211846FFF777
:100CF00067FF7B681B7801211846FFF761FF7B685F
:100D000001337B607B681B78002BEAD100BF00BFFA
:100D10000837BD4680BD000080B584B000AF0346F3
:100D2000FB7197F90730002B10D001224FF480712E
:100D3000164800F095FC4FF4FA7000F029F80022F4
:100D40004FF48071114800F08BFC1AE00023FB6027
:100D500014E001224FF480710C4800F081FC642003
:100D600000F016F800224FF48071084800F078FC7B
:100D7000642000F00DF8FB680133FB60FB68022B78
:100D8000E7DD00BF1037BD4680BD00BF0000024058
:100D900080B485B000AF78600023FB6003E000BF43
:100DA000FB680133FB607B684FF4C86203FB02F20F
:100DB000FB689A42F3D800BF00BF1437BD465DF808
:100DC000047B704780B483B000AF00237B60104B7E
:100DD0005B6C0F4A43F4804353640D4B5B6C03F42C
:100DE00080437B607B6800233B60094B1B6C084A97
:100DF00043F080531364064B1B6C03F080533B603D
:100E00003B6800BF0C37BD465DF8047B704700BFF0
:100E10000038024080B400AF00BFFDE780B400AFEF
:100E200000BFFDE780B400AF00BFFDE780B400AFB6
:100E300000BFFDE780B400AF00BFFDE780B400AFA6
:100E400000BFBD465DF8047B704780B400AF00BFB3
:100E5000BD465DF8047B704780B400AF00BFBD465F
:100E60005DF8047B704780B500AF00F057F900BF14
:100E700080BD80B400AF01231846BD465DF8047BF9
:100E8000704780B582B000AF7860396001F008FA31
:100E9000034616221A604FF0FF3318460837BD4646
:100EA00080BD80B582B000AF78604FF0FF317868C8
:100EB000FFF7E7FF00BFFDE780B586B000AFF86041
:100EC000B9607A6000237B610AE0AFF300800146DD
:100ED000BB685A1CBA60CAB21A707B6901337B6165
:100EE0007A697B689A42F0DB7B6818461837BD4602
:100EF00080BD80B586B000AFF860B9607A6000232D
:100F00007B6109E0BB685A1CBA601B781846AFF3D6
:100F100000807B6901337B617A697B689A42F1DBEF
:100F20007B6818461837BD4680BD80B483B000AFDB
:100F300078604FF0FF3318460C37BD465DF8047BF0
:100F4000704780B483B000AF786039603B684FF47D
:100F500000525A60002318460C37BD465DF8047BEA
:100F6000704780B483B000AF7860012318460C3717
:100F7000BD465DF8047B704780B485B000AFF86073
:100F8000B9607A60002318461437BD465DF8047BCB
:100F90007047000080B586B000AF7860144A154BEA
:100FA000D31A7B617B693B61134B1B68002B02D119
:100FB000114B124A1A60104B1A687B6813443A6945
:100FC0009A4207D201F06CF903460C221A604FF0E6
:100FD000FF3309E0084B1B68FB60074B1A687B680E
:100FE0001344054A1360FB6818461837BD4680BD98
:100FF00000800120000400008C000020E00100209F
:1010000080B400AF064BD3F88830054A43F4700330
:10101000C2F8883000BFBD465DF8047B704700BF52
:1010200000ED00E0DFF834D0FFF7EAFF0C480D498F
:101030000D4A002302E0D458C4500433C4188C4233
:10104000F9D30A4A0A4C002301E013600432A24299
:10105000FBD301F02BF9FFF7A9FA704700800120BC
:10106000000000206800002078340008680000209C
:10107000E0010020FEE7000080B500AF0E4B1B68CA
:101080000D4A43F4007313600B4B1B680A4A43F488
:1010900080631360084B1B68074A43F48073136036
:1010A000032000F00DF90F2000F008F8FFF78AFE8A
:1010B0000023184680BD00BF003C024080B582B0CE
:1010C00000AF7860124B1A68124B1B7819464FF428
:1010D0007A73B3FBF1F3B2FBF3F3184600F017F9A0
:1010E0000346002B01D001230EE07B680F2B0AD8AA
:1010F000002279684FF0FF3000F0EDF8064A7B6877
:101100001360002300E0012318460837BD4680BD68
:1011100000000020080000200400002080B400AF80
:10112000064B1B781A46064B1B681344044A13608F
:1011300000BFBD465DF8047B704700BF080000207B
:101140009000002080B400AF034B1B681846BD46DA
:101150005DF8047B704700BF9000002080B485B02C
:1011600000AF78607B6803F00703FB600C4BDB6823
:10117000BB60BA684FF6FF031340BB60FB681A02FE
:10118000BB68134343F0BF6343F40033BB60044ABE
:10119000BB68D36000BF1437BD465DF8047B704761
:1011A00000ED00E080B400AF044BDB681B0A03F0E5
:1011B00007031846BD465DF8047B704700ED00E06C
:1011C00080B483B000AF03463960FB7197F90730F4
:1011D000002B0ADB3B68DAB20C4997F907301201A1
:1011E000D2B20B4483F800230AE03B68DAB2084924
:1011F000FB7903F00F03043B1201D2B20B441A76C1
:1012000000BF0C37BD465DF8047B704700E100E08D
:1012100000ED00E080B489B000AFF860B9607A609A
:10122000FB6803F00703FB61FB69C3F10703042BB1
:1012300028BF0423BB61FB690433062B02D9FB6979
:10124000033B00E000237B614FF0FF32BB6902FAF1
:1012500003F3DA43BB681A407B699A404FF0FF31D1
:101260007B6901FA03F3D9437B680B4013431846AB
:101270002437BD465DF8047B7047000080B582B01E
:1012800000AF78607B68013BB3F1807F01D301231D
:101290000FE00A4A7B68013B53600F214FF0FF309B
:1012A000FFF78EFF054B00229A60044B07221A605D
:1012B000002318460837BD4680BD00BF10E000E09F
:1012C00080B582B000AF78607868FFF747FF00BF55
:1012D0000837BD4680BD80B586B000AF0346B96013
:1012E0007A60FB7300237B61FFF75CFF78617A68AB
:1012F000B9687869FFF78EFF024697F90F301146FB
:101300001846FFF75DFF00BF1837BD4680BD80B5AA
:1013100082B000AF78607868FFF7B0FF03461846E8
:101320000837BD4680BD000080B489B000AF78604A
:10133000396000237B6100233B610023BB610023F4
:10134000FB6159E10122FB6902FA03F37B613B680F
:101350001B687A6913403B613A697B699A4240F0A5
:1013600048813B685B6803F00303012B05D03B68B1
:101370005B6803F00303022B30D17B689B68BB6181
:10138000FB695B00032202FA03F3DB43BA691340F3
:10139000BB613B68DA68FB695B0002FA03F3BA6978
:1013A0001343BB617B68BA699A607B685B68BB6109
:1013B0000122FB6902FA03F3DB43BA691340BB6104
:1013C0003B685B681B0903F00102FB6902FA03F347
:1013D000BA691343BB617B68BA695A603B685B6852
:1013E00003F00303032B17D07B68DB68BB61FB6949
:1013F0005B00032202FA03F3DB43BA691340BB61CB
:101400003B689A68FB695B0002FA03F3BA6913430D
:10141000BB617B68BA69DA603B685B6803F0030311
:10142000022B23D1FB69DA087B68083253F822309B
:10143000BB61FB6903F007039B000F2202FA03F371
:10144000DB43BA691340BB613B681A69FB6903F06F
:1014500007039B0002FA03F3BA691343BB61FB69FC
:10146000DA087B680832B96943F822107B681B6888
:10147000BB61FB695B00032202FA03F3DB43BA6939
:101480001340BB613B685B6803F00302FB695B00D0
:1014900002FA03F3BA691343BB617B68BA691A6045
:1014A0003B685B6803F44033002B00F0A28000230C
:1014B000FB60574B5B6C564A43F480435364544B78
:1014C0005B6C03F48043FB60FB68524AFB699B083A
:1014D000023352F82330BB61FB6903F003039B0026
:1014E0000F2202FA03F3DB43BA691340BB617B6846
:1014F000494A934219D07B68484A934213D07B688B
:10150000474A93420DD07B68464A934207D07B6896
:10151000454A934201D1042308E0072306E0032350
:1015200004E0022302E0012300E00023FA6902F054
:10153000030292009340BA691343BB613549FB69CA
:101540009B080233BA6941F82320384B9B68BB6182
:101550003B69DB43BA691340BB613B685B6803F4DA
:101560008013002B03D0BA693B691343BB612F4A38
:10157000BB6993602D4BDB68BB613B69DB43BA6998
:101580001340BB613B685B6803F40013002B03D07E
:10159000BA693B691343BB61244ABB69D360234BDF
:1015A0005B68BB613B69DB43BA691340BB613B6865
:1015B0005B6803F40033002B03D0BA693B69134323
:1015C000BB611A4ABB695360184B1B68BB613B691E
:1015D000DB43BA691340BB613B685B6803F480334B
:1015E000002B03D0BA693B691343BB610F4ABB6947
:1015F0001360FB690133FB61FB690F2B7FF6A2AE21
:1016000000BF00BF2437BD465DF8047B704700BFB4
:10161000003802400038014000000240000402404F
:1016200000080240000C024000100240003C014053
:1016300080B485B000AF78600B467B807B681A6908
:101640007B881340002B02D00123FB7301E00023B1
:10165000FB73FB7B18461437BD465DF8047B70476F
:1016600080B483B000AF78600B467B8013467B70FC
:101670007B78002B03D07A887B689A6103E07B88B3
:101680001A047B689A6100BF0C37BD465DF8047B85
:101690007047000080B586B000AF78607B68002B93
:1016A00001D1012367E27B681B6803F00103002B73
:1016B00075D0884B9B6803F00C03042B0CD0854B32
:1016C0009B6803F00C03082B12D1824B5B6803F478
:1016D0008003B3F5800F0BD17E4B1B6803F40033FE
:1016E000002B5BD07B685B68002B57D1012342E263
:1016F0007B685B68B3F5803F06D1764B1B68754A03
:1017000043F4803313601DE07B685B68B3F5A02F62
:101710000CD1704B1B686F4A43F4802313606D4BF0
:101720001B686C4A43F4803313600BE0694B1B6801
:10173000684A23F480331360664B1B68654A23F4C0
:10174000802313607B685B68002B13D0FFF7FAFCE3
:10175000386108E0FFF7F6FC02463B69D31A642BB8
:1017600001D9032307E25B4B1B6803F40033002B12
:10177000F0D014E0FFF7E6FC386108E0FFF7E2FC88
:1017800002463B69D31A642B01D90323F3E1514B81
:101790001B6803F40033002BF0D100E000BF7B682E
:1017A0001B6803F00203002B63D04A4B9B6803F0D5
:1017B0000C03002B0BD0474B9B6803F00C03082B4A
:1017C0001CD1444B5B6803F48003002B16D1414BC2
:1017D0001B6803F00203002B05D07B68DB68012B3C
:1017E00001D00123C7E13B4B1B6823F0F8027B6863
:1017F0001B69DB00374913430B603AE07B68DB6809
:10180000002B20D0344B01221A60FFF79BFC38617B
:1018100008E0FFF797FC02463B69D31A022B01D977
:101820000323A8E12B4B1B6803F00203002BF0D02D
:10183000284B1B6823F0F8027B681B69DB002549F5
:1018400013430B6015E0244B00221A60FFF77AFC6B
:10185000386108E0FFF776FC02463B69D31A022B99
:1018600001D9032387E11B4B1B6803F00203002B04
:10187000F0D17B681B6803F00803002B36D07B682F
:101880005B69002B16D0154B01221A60FFF75AFC3A
:10189000386108E0FFF756FC02463B69D31A022B79
:1018A00001D9032367E10B4B5B6F03F00203002BAD
:1018B000F0D01BE0094B00221A60FFF743FC3861AF
:1018C0000EE0FFF73FFC02463B69D31A022B07D913
:1018D000032350E10038024000004742800E474297
:1018E000884B5B6F03F00203002BEAD17B681B6817
:1018F00003F00403002B00F097800023FB75814B5D
:101900001B6C03F08053002B0FD10023BB607D4B79
:101910001B6C7C4A43F0805313647A4B1B6C03F0BE
:101920008053BB60BB680123FB75774B1B6803F4D6
:101930008073002B18D1744B1B68734A43F4807377
:101940001360FFF7FFFB386108E0FFF7FBFB02467F
:101950003B69D31A022B01D903230CE16A4B1B68A4
:1019600003F48073002BF0D07B689B68012B06D1B9
:10197000644B1B6F634A43F0010313671CE07B68F1
:101980009B68052B0CD15F4B1B6F5E4A43F0040331
:1019900013675C4B1B6F5B4A43F0010313670BE05B
:1019A000584B1B6F574A23F001031367554B1B6FAE
:1019B000544A23F0040313677B689B68002B15D0FF
:1019C000FFF7C0FB38610AE0FFF7BCFB02463B694A
:1019D000D31A41F28832934201D90323CBE0494B19
:1019E0001B6F03F00203002BEED014E0FFF7AAFBFD
:1019F00038610AE0FFF7A6FB02463B69D31A41F2C1
:101A00008832934201D90323B5E03E4B1B6F03F0AC
:101A10000203002BEED1FB7D012B05D1394B1B6C52
:101A2000384A23F0805313647B689B69002B00F0D5
:101A3000A180344B9B6803F00C03082B5CD07B68BF
:101A40009B69022B41D1314B00221A60FFF77AFBD0
:101A5000386108E0FFF776FB02463B69D31A022B98
:101A600001D9032387E0274B1B6803F00073002B89
:101A7000F0D17B68DA697B681B6A1A437B685B6A12
:101A80009B011A437B689B6A5B08013B1B041A435A
:101A90007B68DB6A1B061B4913434B601B4B01220F
:101AA0001A60FFF74FFB386108E0FFF74BFB024677
:101AB0003B69D31A022B01D903235CE0114B1B684D
:101AC00003F00073002BF0D054E0104B00221A609A
:101AD000FFF738FB386108E0FFF734FB02463B694B
:101AE000D31A022B01D9032345E0064B1B6803F0F0
:101AF0000073002BF0D13DE07B689B69012B07D17F
:101B0000012338E000380240007000406000474286
:101B10001B4B5B68FB607B689B69012B28D0FB68D3
:101B200003F480027B68DB699A4221D1FB6803F0F1
:101B30003F027B681B6A9A421AD1FA6847F6C07363
:101B400013407A68526A9201934211D1FB6803F400
:101B500040327B689B6A5B08013B1B049A4207D1B9
:101B6000FB6803F070627B68DB6A1B069A4201D057
:101B7000012300E0002318461837BD4680BD00BF92
:101B80000038024080B584B000AF786039607B686F
:101B9000002B01D10123CCE0684B1B6803F0070345
:101BA0003A689A420CD9654B3A68D2B21A70634BC4
:101BB0001B6803F007033A689A4201D00123B8E09A
:101BC0007B681B6803F00203002B20D07B681B6836
:101BD00003F00403002B05D0594B9B68584A43F48B
:101BE000E05393607B681B6803F00803002B05D06B
:101BF000534B9B68524A43F460439360504B9B683D
:101C000023F0F0027B689B684D4913438B607B682F
:101C10001B6803F00103002B44D07B685B68012B39
:101C200007D1474B1B6803F40033002B19D1012364
:101C30007FE07B685B68022B03D07B685B68032BCB
:101C400007D13F4B1B6803F00073002B09D1012320
:101C50006FE03B4B1B6803F00203002B01D1012313
:101C600067E0374B9B6823F003027B685B6834496D
:101C700013438B60FFF766FAF8600AE0FFF762FA39
:101C80000246FB68D31A41F28832934201D90323FA
:101C90004FE02B4B9B6803F00C027B685B689B005A
:101CA0009A42EBD1254B1B6803F007033A689A422E
:101CB0000CD2224B3A68D2B21A70204B1B6803F048
:101CC00007033A689A4201D0012332E07B681B681F
:101CD00003F00403002B08D0194B9B6823F4E05257
:101CE0007B68DB68164913438B607B681B6803F0D5
:101CF0000803002B09D0124B9B6823F460427B68D9
:101D00001B69DB000E4913438B6000F021F802468B
:101D10000B4B9B681B0903F00F030A49CB5C22FAAB
:101D200003F3094A1360094B1B681846FFF7C6F90D
:101D3000002318461037BD4680BD00BF003C02405E
:101D40000038024078330008000000200400002022
:101D50002DE9B04F90B000AF00237B630023FB63FD
:101D600000233B630023BB63594B9B6803F00C03C8
:101D7000082B0DD0082B00F2A180002B02D0042BE1
:101D800003D09BE0534BBB639BE0534BBB6398E09A
:101D90004F4B5B6803F03F037B634D4B5B6803F481
:101DA0008003002B28D04A4B5B689B0900223B62D2
:101DB0007A623B6AC3F308000021474B03FB01F240
:101DC000002300FB03F31344434AA0FB0212FA6210
:101DD0000A46BA62FA6A1344FB627B6B0022BB615B
:101DE000FA61D7E90623D7E90A01FEF749FA024664
:101DF0000B461346FB6353E0354B5B689B0900229F
:101E00003B617A613B69C3F3080A4FF0000B52460D
:101E10005B464FF000004FF00001590141EAD261EA
:101E2000500102460B46B2EB0A0863EB0B094FF078
:101E300000024FF000034FEA891343EA98634FEA28
:101E40008812B2EB080463EB09054FF000024FF073
:101E50000003EB0043EA5473E20014461D4614EB02
:101E60000A033B6045EB0B037B604FF000024FF031
:101E70000003D7E9004529468B02214643EA9153E6
:101E800021468A02104619467B6B0022BB60FA602D
:101E9000D7E90223FEF7F4F902460B461346FB632B
:101EA0000B4B5B681B0C03F0030301335B003B63CC
:101EB000FA6B3B6BB2FBF3F3BB6302E0054BBB6316
:101EC00000BFBB6B18464037BD46BDE8B08F00BFB2
:101ED000003802400024F40040787D0138B5104BF2
:101EE0001D682B6B0446B3B9182000F06FFA024648
:101EF000286320B90B4B0C48462100F0FFF90B4931
:101F00000B4BC0E900130B4B83600B238381002133
:101F10000120C2E904012B6B00221C615A6138BD0B
:101F200018000020883300089F3300080E33CDAB23
:101F300034126DE6ECDE0500164B10B51C68236B01
:101F4000B3B9182000F042FA0246206320B9124BC0
:101F50001248522100F0D2F91149124BC0E9001386
:101F6000114B83600B23838100210120C2E904010E
:101F7000216B0E480B694C690D4A584302FB040063
:101F8000A3FB0232013340EB0200C1E9043020F030
:101F9000004010BD18000020883300089F3300085F
:101FA0000E33CDAB34126DE6ECDE05002DF4515846
:101FB0002D7F954C002310B50446C0E90033C0E9DD
:101FC0000433836081814366C2818361194608229C
:101FD0005C3000F016F90D4B63620D4BA3620D4BA4
:101FE000E3620D4B23630D4B24629C4206D003F148
:101FF0006802944202D0D0339C4205D104F15800CB
:10200000BDE8104000F076B910BD00BF7D2100088A
:102010009F210008D7210008FB2100089400002020
:10202000024A0349034800F069B800BF0C000020D1
:10203000092C00081C00002041680C4B994210B587
:10204000044601D000F0E0FDA168094B994202D09E
:10205000204600F0D9FDE168064B994204D02046A5
:10206000BDE8104000F0D0BD10BD00BF94000020BE
:10207000FC0000206401002010B50B4B0B4C0C4AF7
:102080001A60204600220421FFF794FF04F1680043
:1020900001220921FFF78EFF04F1D0000222BDE8E2
:1020A00010401221FFF786BFCC01002094000020D1
:1020B00021200008014800F01EB900BFD501002012
:1020C000014800F019B900BFD501002010B5044641
:1020D000FFF7F0FF236A1BB1BDE81040FFF7F0BF28
:1020E000044B2362044B1B68002BF5D1FFF7C4FFA0
:1020F000F2E700BF39200008CC0100202DE9F843A9
:102100000746884614460026D4E90195B9F101092D
:1021100005D52468002CF7D13046BDE8F883AB899B
:10212000012B07D9B5F90E30013303D029463846C3
:10213000C04706436835E9E70EB410B59DB01FAB44
:10214000029006906FF000410A48079104910A49F5
:1021500053F8042B0591002402A9006801931B94F5
:1021600000F046FA029B1C701DB0BDE8104003B0A1
:10217000704700BF180000200802FFFF10B50C4692
:10218000B1F90E1000F068F80028ABBF636DA389A9
:102190001B1823F48053ACBF6365A38110BD2DE9E8
:1021A000F0411F468B89DB0505460C46164605D5D2
:1021B000B1F90E100223002200F03CF8A389B4F913
:1021C0000E1023F48053A38132463B462846BDE8D7
:1021D000F04100F053B810B50C46B1F90E1000F004
:1021E00029F8431CA38915BF606523F4805343F489
:1021F0008053A38118BFA38110BDB1F90E1000F068
:1022000009B802440346934200D1704703F8011B0A
:10221000F9E7000038B5064D0023044608462B6058
:10222000FEF783FE431C02D12B6803B1236038BD47
:10223000D001002038B5074D04460846114600225B
:102240002A601A46FEF798FE431C02D12B6803B1A0
:10225000236038BDD001002038B5074D044608463C
:10226000114600222A601A46FEF726FE431C02D1C0
:102270002B6803B1236038BDD001002038B5074D6D
:1022800004460846114600222A601A46FEF731FE2F
:10229000431C02D12B6803B1236038BDD00100205C
:1022A000014B1868704700BF1800002070B50D4D35
:1022B0000D4C641BA4100026A64209D10B4D0C4CFA
:1022C00000F0EEFF641BA4100026A64205D170BDED
:1022D00055F8043B98470136EEE755F8043B98471C
:1022E0000136F2E7703400087034000870340008DA
:1022F0007434000870477047704700001FB51446DB
:102300001A46094B1B680546D8684CB1074B00912B
:10231000CDE9013406492B4600F09EFC00F0E6FCB6
:10232000044B1C46F3E700BF18000020F7330008F9
:10233000043400083234000838B50546002941D07D
:1023400051F8043C0C1F002BB8BFE41800F0E8F86B
:102350001D4A136833B9636014602846BDE83840ED
:1023600000F0E4B8A34208D9206821188B4201BFCD
:1023700019685B6809182160EDE71A465B680BB1C4
:10238000A342FAD911685018A0420BD12068014429
:10239000501883421160E0D118685B6853600844AC
:1023A0001060DAE702D90C232B60D6E720682118E9
:1023B0008B4204BF19685B68636004BF0918216021
:1023C0005460CAE738BD00BFDC010020024B014663
:1023D000186800F025B800BF1800002070B50F4E37
:1023E0000C463168054611B900F062FC30602146A8
:1023F000284600F05DFC431C03D14FF0FF3420461B
:1024000070BDC41C24F00304A042F8D0211A284651
:1024100000F04EFC0130F2D1EFE700BFD801002000
:102420002DE9F843CD1C25F0030508350C2D38BFE8
:102430000C25002D064601DBA94204D90C2333608C
:102440000020BDE8F883DFF8D48000F069F8D8F800
:1024500000301C4644BB29463046FFF7BFFF431CF3
:10246000044658D1D8F800402746002F43D1002C0D
:102470004BD023683946304604EB030900F018FCC2
:10248000814542D121686D1A29463046FFF7A6FFE3
:1024900001303AD023682B442360D8F800305A68C2
:1024A00062BBC8F800700FE02268521B20D40B2AD0
:1024B00017D96119A342256018BF5960636808BF26
:1024C000C8F8001062514B60304600F02FF804F15C
:1024D0000B00231D20F00700C21A1CBF1B1AA350BB
:1024E000AFE76268A3420CBFC8F800205A60EBE770
:1024F00023466468AEE73C467F68B6E71A465B68E9
:10250000A342FBD100235360DEE70C233360304647
:1025100000F00CF894E70560D6E700BFDC0100206E
:102520000148FFF7E8BE00BFD40100200148FFF7D3
:10253000E3BE00BFD40100202DE9F0478E681F469E
:10254000BE420B6882460C4690462DD8B1F90C204D
:1025500012F4906F26D06569096905EB4505A3EB78
:10256000010905EBD5757B1C4B446D109D4238BFAE
:102570001D46530527D52946FFF752FF064660B38F
:1025800021694A4600F0A4FBA38923F4906343F039
:102590008003A381266165614E44A5EB0905266091
:1025A000A5603E46BE4200D93E46206832464146BE
:1025B00000F064FBA3689B1BA36023683344236083
:1025C0000020BDE8F0872A4600F097FB0646002869
:1025D000E0D121695046FFF7AFFE0C23CAF8003066
:1025E000A38943F04003A3814FF0FF30E9E70000E7
:1025F0002DE9F04F98468B891B069DB007460D4686
:10260000144610D50B6973B94021FFF709FF286004
:10261000286130B90C233B604FF0FF301DB0BDE89E
:10262000F08F40236B610023099320238DF829301C
:10263000CDF80C803023DFF89C818DF82A304FF0E4
:10264000010923469A4613F8012B0AB1252AF9D12C
:10265000BAEB040B0BD05B46224629463846FFF7FF
:102660006BFF013000F0A780099A5A4409929AF84A
:102670000030002B00F09F8000234FF0FF32CDE9A7
:1026800005230AF1010A049307938DF853301A9336
:102690005446052214F8011B4E48FDF7A1FD049A8B
:1026A000D8B9D00644BF20238DF85330110744BF5A
:1026B0002B238DF853309AF800302A2B15D0079A27
:1026C000544600204FF00A0C214611F8013B303BE4
:1026D000092B4BD9B0B1079214E0A0EB080309FA1B
:1026E00003F313430493A246D2E7039B191D1B680F
:1026F0000391002BBBBF5B4242F00202079307939A
:10270000B8BF049223782E2B0AD163782A2B32D1BA
:10271000039B1A1D1B68039243EAE373023405937B
:10272000DFF8C0A0217803225046FDF759FD38B1EB
:10273000049BA0EB0A00402282401343013404931F
:1027400014F8011B24488DF828100622FDF748FDD7
:10275000002836D0214B1BBB039B073323F0070314
:1027600008330393099B334409936AE70CFB023255
:102770000C460120A8E700230134059319464FF0C9
:102780000A0C204610F8012B303A092A03D9002BF5
:10279000C6D00591C4E70CFB012104460123F0E7F4
:1027A00003AB00932A460E4B04A93846AFF30080D2
:1027B000421C0646D6D1AB895B063FF52DAF099882
:1027C0002CE703AB00932A46054B04A9384600F0DA
:1027D00079F8EDE7333400083D34000800000000CC
:1027E00039250008393400082DE9F0471646984687
:1027F0008A680B69DDF820909342B8BF13463360B6
:1028000091F8432007460C460AB101333360236830
:10281000990642BF336802333360256815F0060518
:1028200006D104F1190AE36832689B1AAB4226DC30
:1028300094F843302268003B18BF012392062BD442
:1028400004F1430241463846C84701301ED0236890
:10285000226903F00603042B02BFE5683368ED1A12
:10286000A3680CBF25EAE57500259342C4BF9B1AF7
:10287000ED1800261A34B5421AD1002008E00123D1
:10288000524641463846C847013003D14FF0FF3029
:10289000BDE8F0870135C6E7E1185A1C302081F801
:1028A0004300224494F8451082F843100233C7E7EE
:1028B0000123224641463846C8470130E6D001365A
:1028C000D9E700002DE9FF470F7E0C9E782F914637
:1028D00080460C469A4601F1430207D8622F0AD877
:1028E000002F00F0D180582F00F0B88004F142068C
:1028F00084F842703AE0A7F16303152BF6D801A1E2
:1029000051F823F05D29000871290008ED2800081E
:10291000ED280008ED280008ED28000871290008BE
:10292000ED280008ED280008ED280008ED28000833
:102930006F2A00089B290008292A0008ED280008B2
:10294000ED280008912A0008ED2800089B290008BE
:10295000ED280008ED280008312A000833681A1D08
:102960001B68326004F1420684F8423001239CE087
:1029700033682068191D3160060601D51D6803E023
:102980004506FBD5B3F90050002D03DA2D236D4227
:1029900084F8433058480A2311E021683368080658
:1029A00053F8045B02D4490648BFADB26F2F5248BA
:1029B000336014BF0A230823002184F8431066689B
:1029C000A660002E05DB21682E4321F00401216062
:1029D0004BD01646B5FBF3F103FB1157C75D06F864
:1029E000017D2F46BB420D46F4D9082B0BD123683D
:1029F000DF0708D5236961689942DEBF302306F8F6
:102A0000013C06F1FF36921B2261CDF800A04B4637
:102A100003AA21464046FFF7E7FE01304AD14FF0B6
:102A2000FF3004B0BDE8F087236843F02003236043
:102A30003248782784F84570236831681F0651F8BA
:102A4000045B02D45F0648BFADB23160D90744BF12
:102A500043F0200323601DB11023ADE72648E9E7CA
:102A6000236823F020032360F6E71646BDE73368AA
:102A700025686169181D30602E061B6801D5196034
:102A800002E06806FBD51980002323611646BCE7E7
:102A900033681A1D32601E68626800213046FDF7F7
:102AA0009FFB08B1801B606063682361002384F88A
:102AB0004330AAE72369324649464046D0470130B1
:102AC000ADD023689B0713D4E068039B9842B8BF3E
:102AD0001846A6E70123324649464046D047013012
:102AE0009DD00135E36803995B1AAB42F2DCEBE75A
:102AF000002504F11906F5E74434000855340008B0
:102B0000B1F90C202DE9F041160705460C4654D4C6
:102B10004B68002B02DC0B6C002B48DDE66A002EB4
:102B200045D0002312F480522F68216A2B6030D0E8
:102B3000626DA389590705D56368D21A636B0BB11F
:102B4000236CD21A0023E66A216A2846B047431C48
:102B5000A38906D129681D292BD82A4ACA40D6073D
:102B600027D500226260D9042269226004D5421C64
:102B700001D12B6803B96065616B2F60B9B104F1B5
:102B80004403994202D02846FFF7D6FB0023636333
:102B90000DE001232846B0470246501CC9D12B68DE
:102BA000002BC6D01D2B01D0162B1ED12F6000206C
:102BB00022E043F040031BB21BE00F69002FF6D068
:102BC00093070E6808BF4B690F6018BF0023A6EB80
:102BD00007088B60B8F1000FE9DD216AA66A434659
:102BE0003A462846B047002808DCB4F90C3043F0D8
:102BF0004003A3814FF0FF30BDE8F0810744A8EB0C
:102C00000008E7E70100402038B50B6905460C468F
:102C100013B90025284638BD18B1036A0BB9FFF770
:102C200055FAB4F90C30002BF3D0626ED00704D4FF
:102C3000990502D4A06DFFF75EFB28462146FFF7F9
:102C40005FFF636EDA070546E4D4A3899B05E1D4F0
:102C5000A06DFFF751FBDDE70EB403B5014603ABF2
:102C6000054853F8042B0068019300F09DF802B06A
:102C70005DF804EB03B0704718000020884210B5DF
:102C800001EB020402D98442234607D8431EA14225
:102C900008D011F8012B03F8012FF8E70244014690
:102CA0008A4200D110BD13F8014D02F8014DF7E73B
:102CB00038B5064D0023044608462B60FEF76AF936
:102CC000431C02D12B6803B1236038BDD001002022
:102CD0000A44914200F1FF3300D1704710B511F85A
:102CE000014B03F8014F9142F9D110BD08B5062000
:102CF00000F02EFA0120FEF7D4F82DE9F041074646
:102D000014460D4621B9BDE8F0411146FFF788BBD6
:102D10002AB9FFF711FB25462846BDE8F08100F0EF
:102D200033FA8442064602D8B4EB500FF4D8214659
:102D30003846FFF775FB804608B94546ECE7B442D4
:102D40002246294628BF3246FFF7C2FF29463846A9
:102D5000FFF7F2FAF1E79368013B002B10B49360A0
:102D600008DA9469A34201DB0A2903D15DF8044B18
:102D700000F032B91368581C1060197008465DF8ED
:102D8000044B7047F8B506460F461446D518AC42BA
:102D900001D1002007E014F8011B3A463046FFF746
:102DA000DAFF431CF3D1F8BD2DE9F04F0D469DB07D
:102DB00014469846064618B1036A0BB9FFF786F920
:102DC0006B6ED90705D4AB899A0502D4A86DFFF7BD
:102DD00092FAAB891B0701D52B699BB9294630466E
:102DE00000F038F970B16B6EDC0704D54FF0FF309E
:102DF0001DB0BDE8F08FAB899805F7D4A86DFFF73B
:102E00007BFAF3E70023099320238DF82930CDF8CE
:102E10000C803023DFF8AC818DF82A304FF00109A7
:102E200023469A4613F8012B0AB1252AF9D1BAEBA9
:102E3000040B0BD05B46224629463046FFF7A2FF23
:102E4000013000F0A780099A5A4409929AF800309C
:102E5000002B00F09F8000234FF0FF32CDE90523C7
:102E60000AF1010A049307938DF853301A935446DC
:102E7000052214F8011B5348FDF7B2F9049AD8B99A
:102E8000D10644BF20238DF85330130744BF2B23B2
:102E90008DF853309AF800302A2B15D0079A5446F3
:102EA00000204FF00A0C214611F8013B303B092B62
:102EB0004BD9B0B1079214E0A0EB080309FA03F371
:102EC00013430493A246D2E7039B191D1B68039189
:102ED000002BBBBF5B4242F0020207930793B8BFCF
:102EE000049223782E2B0AD163782A2B32D1039BAC
:102EF0001A1D1B68039243EAE37302340593DFF85B
:102F0000D4A0217803225046FDF76AF938B1049B1A
:102F1000A0EB0A004022824013430134049314F8CA
:102F2000011B29488DF828100622FDF759F90028C1
:102F30003FD0264B1BBB039B073323F0070308330B
:102F40000393099B3B4409936AE70CFB02320C464E
:102F50000120A8E700230134059319464FF00A0C1D
:102F6000204610F8012B303A092A03D9002BC6D08D
:102F70000591C4E70CFB012104460123F0E703ABF4
:102F800000932A46124B04A93046AFF3008007464F
:102F9000781CD6D16B6ED90705D4AB899A0502D4BB
:102FA000A86DFFF7A9F9AB895B063FF51FAF09983C
:102FB0001EE703AB00932A46054B04A93046FFF7F2
:102FC00081FCE4E7333400083D34000800000000D1
:102FD000852D000839340008F8B50E46144605461C
:102FE00018B1036A0BB9FFF771F8A369A360A3894D
:102FF0001A0701D5236943B92146284600F02AF86B
:1030000018B14FF0FF373846F8BD23682269981A87
:103010006369F6B28342374605DC21462846FFF74E
:10302000F3FD0028EDD1A368013BA36023685A1C7F
:1030300022601E706269431C9A4204D0A389DB0798
:10304000E1D50A2EDFD121462846FFF7DDFD002815
:10305000D9D0D6E738B5294B054618680C4618B1C3
:10306000036A0BB9FFF732F8B4F90C30190722D410
:10307000DA0607D409222A6043F04003A3814FF007
:10308000FF3033E0580712D5616B41B104F14403BE
:10309000994202D02846FFF74FF900236363A389C2
:1030A00023F02403A3810023636023692360A389A1
:1030B00043F00803A38123694BB9A38903F4207368
:1030C000B3F5007F03D02146284600F08BF8B4F911
:1030D0000C3013F001020AD00022A2606269524251
:1030E000A261226942B913F08000C5D138BD9907A9
:1030F00058BF6269A260F4E70020F7E718000020DB
:103100001F2938B505460C4604D9162303604FF035
:10311000FF3038BDC26B12B152F821304BB928468E
:1031200000F030F8224601462846BDE8384000F05D
:1031300017B8012B0AD0591C03D1162303600120B4
:10314000E7E7002142F82410204698470020E0E7F6
:10315000024B01461868FFF7D3BF00BF18000020DC
:1031600038B5074D00230446084611462B60FDF78D
:1031700088FE431C02D12B6803B1236038BD00BF19
:10318000D0010020FDF775BE51F8043C181F002B3C
:10319000BCBF0B58C018704770B50C46B1F90E1083
:1031A000002996B015461E460DDAA38913F0800F4C
:1031B0004FF0000114BF40234FF4806300203160C2
:1031C0002B6016B070BD6A4600F048F80028ECDBB2
:1031D000019901F47041A1F50053594259414FF44E
:1031E0008063EBE78B89F7B59D0706460C4607D54C
:1031F00004F14703236023610123636103B0F0BD41
:1032000001AB6A46FFF7C8FF009F054639463046C6
:10321000FFF706F948B9B4F90C309A05EED423F05B
:10322000030343F00203A381E2E7A389206043F094
:103230008003A381019BC4E904075BB1B4F90E10BC
:10324000304600F01DF828B1A38923F0030343F0B2
:103250000103A381A3891D43A581CFE738B5074D9D
:1032600000230446084611462B60FDF76AFE431C06
:1032700002D12B6803B1236038BD00BFD00100200C
:1032800038B5064D0023044608462B60FDF769FE5D
:10329000431C02D12B6803B1236038BDD00100204C
:1032A000F8B500BFF8BC08BC9E467047F8B500BF33
:0832B000F8BC08BC9E46704703
:1032B80053595354454D20434845434B2E2E2E0019
:1032C8003D3D20444943452047414D45203D3D0073
:1032D8005031205475726E3A20524F4C4C00000009
:1032E800284C2900000000002857290050313A25B1
:1032F80064202573000000005032205475726E3A25
:1033080020524F4C4C00000050323A25642025735F
:1033180000000000504C4159455220312057494E79
:1033280053210000504C4159455220322057494EF4
:10333800532100004D415443482044524157210035
:10334800524553455420544F205245504C41590042
:103358003D3D204E4557204D41544348203D3D00BA
:103368000000080041002A0063006B00770000009D
:10337800000000000000000001020304060708091D
:103388005245454E54206D616C6C6F6320737563B4
:10339800636565646564002F6275696C642F676E88
:1033A800752D746F6F6C732D666F722D73746D331A
:1033B800325F31332E332E72656C312E3230323516
:1033C800303532332D303930302F7372632F6E65BC
:1033D800776C69622F6E65776C69622F6C696263BE
:1033E8002F7374646C69622F72616E642E63002C93
:1033F8002066756E6374696F6E3A20006173736539
:103408007274696F6E2022257322206661696C656B
:10341800643A2066696C6520222573222C206C6929
:103428006E65202564257325730A00232D302B2013
:1034380000686C4C0065666745464700303132339A
:103448003435363738394142434445460030313205
:103458003334353637383961626364656600000095
:0834680078CDFF7F0100000098
:04347000C50100088A
:04347400A1010008AA
:103478000024F4001000000001000000000000001B
:1034880003000000940000201C0000200000000041
:1034980094000020FC0000206401002000000000CF
:1034A8000000000000000000000000000000000014
:1034B8000000000000000000000000000000000004
:1034C80000000000000000000000000000000000F4
:0834D8000000000000000000EC
:0400000508001025BA
:00000001FF
